:200000009CC50000B6C500000C948E110C94B111B0C500000C94750EACC50000AAC50000EB
:20002000A8C50000A6C500000C946008A2C50000A0C500009EC500009CC500009AC50000F1
:2000400098C5000096C5000094C5000092C5000090C500008EC500000C94ED124F666600D6
:200060004F6E004F6666004F666600507265737320656E74657220746F20736C6565700006
:200080004A756D7020746F20626F6F746C6F61646572000A4E03BA060B00008A0614490360
:2000A00000001543030000160000760A1736030000180000D60A1922030000240000D90BC1
:2000C0001B1D0300001C00001C0C1D110300001E0000940C1FFE0200002000009A0D6F91CC
:2000E000020000738C020000700000920F7180020000720000E20F7D0000880F28F8020060
:20010000002A000073142B0000D7143CEC0200003D00000A0A5AE40200005BDC0200005CC8
:20012000CC0200005D00003A125EC10200005F0000BA0560B1020000610000D50562A102B6
:200140000000630000200664970200006500005E06747B020000750000B010766F02000043
:20016000770000D31000000000000A045A0A020B0A05140B030A14040A14021514030A14E9
:20018000056F15041B15021615031415051B170419170118170316170519190417190124EE
:2001A0001903161905171B04151B021C1B03141B05151D041F1D011E1D031C1D051F1F04E8
:2001C0001D1F01201F031C1F051D6F04146F02736F030A6F052873047473027073036F7398
:2001E000057474047374027574036F7405737101727103707604767601777603747605765A
:2002000028046F28022A28030A28053C29022A2903283C04283C023D3C030A3C055A5A0483
:200220003C5A025B5A030A5A050A5B04645B025C5B035A5B055E5C015D5C035B5E045B5E7A
:20024000025F5E035A5E056060045E60026160035A60056262046062026362035A6205649F
:2002600064046264026564035A64055B00000041646A757374204D6F6465004D6F646500CF
:2002800041646A7573742054696D650054696D6500416C61726D004B657920436C69636B99
:2002A000004175746F20506F776572205361766500506F7765722053617665204D6F646568
:2002C00000426F6F746C6F616465720041646A75737420636F6E747261737400446973708A
:2002E0006C6179004F7074696F6E730054656D7065726174757265004D7573696300436892
:20030000616E6765204461746520466F726D61740041646A757374204461746500446174F9
:2003200065004368616E676520436C6F636B20466F726D61740041646A75737420436C6FD4
:20034000636B00436C6F636B0054696D650041565220425554544552464C5920C7C3C3001D
:20036000AA03A703A403A1039E039B039803940391038D038A03860382037E037B03770332
:2003800072036E036A03660361035D03580353034F034A03450340033B03360330032B032A
:2003A000260320031B0315030F030A030403FE02F802F202EC02E602DF02D902D302CC0272
:2003C000C602BF02B902B202AC02A5029E02970291028A0283027C0275026E0268026102C1
:2003E0005A0253024C0245023E0237023002290222021B0215020E0207020002F901F20181
:20040000EC01E501DE01D801D101CB01C401BE01B701B101AA01A4019E01980192018C011D
:20042000860180017A0174016E01680163015D01580152014D01470142013D0138013301FA
:200440002E01290124011F011A01150111010C0108010301FF00FB00F600F200EE00EA00E7
:20046000E600E200DE00DB00D700D300CF00CC00C800C500C200BE00BB002F03390342033B
:200480004B0353035C0364036C0373037B03820388038F0395039B0326031C031203070350
:2004A000FD02F202E702DC02D002C502B902AD02A102950289027C027002630257024A02C0
:2004C0003E023202250219020C020002F401E801DC01D001C401B801AD01A20196018C01D7
:2004E000810176016C01620158014E0144013B0132012901200117010F010701FF00F70066
:20050000F000E900E100DB00D400CD00C700C100BB003132480032344800323448003132F8
:200520004800313248003234480042053C05360556054F0548050001020304050405000142
:20054000020304050203000159594D4D4444004D4D444459590044444D4D5959007F057C0B
:200560000579057605730570056D0500005355005341004652005448005744005455004D1D
:200580006F00362D3700312D35004F666600362D3700312D35004F66660008010801080141
:2005A0000801080110021002200409090909090A0A0B510A802A0000000A510A000059557D
:2005C0001801111E111B500B411B411F1101511F511B0000000000000000000000000000A2
:2005E000510F913941149131411E410E411D500F8020101548864014780570855115510E31
:200600005195518E219081205015484450C528C02820095000000000000000000000504C98
:200620004159494E4700F70A440A8709EE0860083A0724070000510A8E09FD0868084207E9
:200640002C074606000000002000C8002000C3002000BE002000B9002000B4002000AF00F6
:200660002000AA002000A5002000A00020009B00200096002000910020008C0020008700B6
:200680002000820020007D00200078002000730020006E002000690020006400080001004C
:2006A0002000C8002000C3002000BE002000B9002000B4002000AF002000AA002000A50086
:2006C0002000A00020009B00200096002000910020008C00200087002000820020007D00A6
:2006E00020007D00200082002000870020008C00200091002000960020009B002000A00086
:200700002000A5002000AA002000AF002000B4002000B9002000BE002000C3002000C80025
:200720000000000057686973746C650003000400DE0104003F0100000100536972656E6548
:20074000320000002000900120008D0120008A0120008701200084012000810120007E01CF
:2007600020007B0120007801200075012000720120006F0120006C012000690120006601ED
:20078000200063012000600120005D0120005A0120005701200054012000510120004E018D
:2007A00020004B0120004801200045012000420120003F0120003C0120003901200036012D
:2007C000200033012000300120002D0120002A0120002A0120002D0120003001200033019D
:2007E000200036012000390120003C0120003F0120004201200045012000480120004B01ED
:2008000020004E0120005101200054012000570120005A0120005D0120006001200063010C
:20082000200066012000690120006C0120006F0120007201200075012000780120007B012C
:2008400020007E0120008101200084012000870120008A0120008D012000900100000100FF
:20086000536972656E653100030004003F010200EF000800EF000400EF000400BE000200FB
:20088000D5000800EF000400D5000800BE000800D5000200EF000800EF000400BE00040062
:2008A0009F0002008E000800010004008E0002009F000800BE000400BE000400EF00020050
:2008C000D5000800EF000400D5000800BE000800D5000200EF0008001C0104001C01040095
:2008E0003F010200EF00040001000000010041756C64204C616E672053796E6500020004D4
:2009000000AA0108007E02080038020800FA010800DE010400AA0104007E0204007E0204BD
:20092000007B010800DE010800AA0108007B010800520104003F0104007E0204007E020472
:2009400000DE010800AA010800DE010800FA01080038020400FA010800DE010800FA0108E8
:2009600000380208007E020400A40208007E02080038020800FA0108007E020400FA0102B5
:20098000003802000001004D696E7565740003001000A4021000F602100024031000F602AA
:2009A00004007E021000380210007E021000A40210007E020400FA011000DE011000FA019A
:2009C000100018021000FA011000520110007B011000920110007B011000520110007B01D5
:2009E0001000920110007B0104003F0108007B0108003F012000AA0120007B0110005201EE
:200A000008007B010800AA0108007B012000AA0120007B011000520108007B010800AA011A
:200A200008007B012000AA0120007B011000520108007B010800AA010800C3010400FA0166
:200A4000000001005475726B6579206D6172636800030008007B010800920108007B010838
:200A600000920108007B010800FA010800AA010800DE0104003802080001000800BC0308AC
:200A800000F602080038020400FA01080001000800F60208005A020800FA010400DE0108C2
:200AA0000001000800F60208007B010800920108007B010800920108007B010800FA010868
:200AC00000AA010800DE0104003802080001000800BC030800F602080038020400FA01082D
:200AE0000001000800F6020800DE010800FA01040038020000010046757220456C6973658D
:200B0000004572726F722054656D7065726174757265004C4344207465737400536F756EC5
:200B20006400446F776E005269676874005570004C65667400546573740011241FBECFEFFB
:200B4000D4E0DEBFCDBF11E0A0E0B1E0E4E2FDE202C005900D92AA33B107D9F721E0AAE328
:200B6000B1E001C01D92AD3AB207E1F7ADD10C94901646CA90910401992341F0109204016E
:200B800061E080E890E00E94E1110DC0813021F488E180936000FFCF833029F481E0809327
:200BA00004018EE508958FE5089590910301992341F01092030161E08BE690E00E94E111A1
:200BC0000FC0813031F480933A01809303018AE00895833029F481E08093030180E60895B9
:200BE00081E60895CF93DF9380910601F7D2C82FD82FD295DF706DE480E00E94131269E4C3
:200C000081E00E9413126EE482E00E94131260E283E00E94131260E36D0F84E00E941312DB
:200C20006C2F6F70605D85E00E94131260E086E00E94131260E081E0DF91CF910C942C1295
:200C400090910201992351F0109202018091050181111AC061E087E690E02CC0813021F47B
:200C60008093020182E60895843081F4809106018B5F8B3520F08AE5809306011DC08093E5
:200C8000060181E080930501ADDF16C08530A1F480910601882319F085508093060180915B
:200CA0000601853070F7109205011092060161E083E690E00E94E11183E6089590910101E9
:200CC000992321F01092010191E001C090E0813021F48093010184E608958450823030F475
:200CE00080913B01809580933B0102C0992381F080913B0161E0882319F080E690E002C07A
:200D00008CE590E00E94E11160E081E00E942C1285E6089590910001992319F1109200014A
:200D200062E580E00E94131265E481E00E94131266E582E00E94131260E383E00E941312F3
:200D400061E384E00E94131260E385E00E94131260E086E00E94131260E081E00E942C12C7
:200D600007C0833029F481E0809300018AE008958BE00895CF93C82F90916B01937080E00F
:200D800011F0B4D301C04AD7C11102C08AE001C084E1CF91089570E0472F50E09A01220F06
:200DA000331F240F351FF901E659FE4F9491992379F098130BC0F901E559FE4FE491E61321
:200DC00005C0F901E459FE4F849108957F5FE4CF0895019728F02DE700002150E9F7F9CF0D
:200DE000089580E88093610083E0809361001092700088E08093B60088EC8093B300109284
:200E00006E0081E0809381008093B0008091B6009091B60094708170892BC1F788EE93E0C4
:200E2000D8DF2FEF31E0F89426BB27BB10928500109284001092B200B99BFECF1092810098
:200E40007894B09914C0409184008091850090E0982F8827840F911D8B3648E1940724F0BE
:200E600080916600815006C0883E97413CF4809166008F5F8093660080E001C081E0309373
:200E80008100882381F20895ACDFE1E6F0E080E8808393E0908380BF87E080937E008FE05D
:200EA00085B980EF8EB9259A2D9A0E943D11EBD7DCD2EDD08CE090E0C1D10E940C110E94CC
:200EC0001D11289A0C94D3128AE080935D01DCDF7894D12C0AEB16E0E12CF12CDAE095E0BA
:200EE000B92E2AE0A22E33E0C32E4DE7942E80913A0181113AC0E114F10439F061E0C70143
:200F00000E94E11180E00E9429120E94D4110115110519F0F801099506C0882329F0682F8C
:200F200080915D0138DFD82F80915D01D817D9F0D0935D0120E0B29EC0011124FC01ED56B6
:200F4000FF4FE491EE2379F0ED130BC0FC01EC56FF4FE590F490FC01EA56FF4F059114913D
:200F600004C02F5FE8CFE12CF12C80910501882369F09091450180910601981738F0A0929B
:200F80005D011092450181E080933A011F9903C01E9B0E94CE15C3B12CB130E020953095C8
:200FA0002C703327C095C07DC22BCD1519F0109257010AC0DD2041F080915701813011F4C0
:200FC0000E945511C0925701809176018823F9F01092760190925D0180913A01882381F042
:200FE00010923A01ECEEF0E01192E11581E0F807D9F78091E40080688093E4000E94D41146
:2010000008E81FE081E9E82E82E0F82EDAE080915C01811131C08091760181112DC0809116
:201020003A01882329F08091E4008F778093E40083B7817F866083BF83B7816083BF8895E3
:2010400083B78E7F83BF80913A01811102C0DC2E4ECF1E99FCCF10923A01ECEEF0E0119294
:20106000E11581E0F807D9F78091E40080688093E4000E94D411EBCF83B7817F83BF83B77F
:20108000816083BF889583B78E7F83BFE0CFE2E6F1E011821082138212821582148217822B
:2010A0001682EEE5F1E08FEF808381838283838382E080936E0086E287BD8CE084BD08958B
:2010C0001F920F920FB60F9211242F933F934F935F936F937F938F939F93AF93BF93CF935D
:2010E000DF93EF93FF93C2E6D1E0E991F991309709F0099581E0CA36D807B9F7EEE5F1E01B
:2011000094E09E0F808181508E3F08F4808331969E13F8CFFF91EF91DF91CF91BF91AF9161
:201120009F918F917F916F915F914F913F912F910F900FBE0F901F901895A2E6B1E0FD0171
:201140002191319128173907C9F021E0EA36F207B9F720E030E04D915D91452B41F4220F67
:20116000331FF901EE59FE4F9183808307C02F5F3F4F2430310579F780E0089581E00895A0
:20118000E2E6F1E020E030E0419151914817590749F4220F331FF901EE59FE4F11821082C0
:2011A00081E008952F5F3F4F2430310569F780E00895EEE5F1E020E030E0822F91919F3FC9
:2011C00031F4F901E25AFE4F10828F5F08952F5F3F4F2430310589F780E0089520E08A306D
:2011E00018F02F5F8A50FBCF90E1299F90011124822B0895843640F09CE9980F943638F064
:20120000885C22E030E006C020E030E003C0892F21E030E044E0220F331F4A95E1F78A305E
:2012200020F02F5F3F4F8A50FACF94E0220F331F9A95E1F7A901482BCA010895292F3327AA
:201240002093C5008093C40082E08093C00080E18093C10086E08093C20008958B9A839ABB
:2012600080917A00806880937A0080917A00806480937A0080917A0084FFFCCF48E080E011
:2012800090E020917A00206420937A0020917A0024FFFCCF509178002091790030E0322FF5
:2012A0002227250F311D820F931F415051F78B98839820917A002F7720937A0023E09595DE
:2012C00087952A95E1F7089580937C0083E880937A00C4CF1F93CF93DF93C0DF20917C0052
:2012E000211194C020910801233009F04AC08B3223E0920784F02AE734E0C0E0F9014591F6
:201300005491481759072CF4CF5F2E5F3F4FCA31A9F76DE213C0803223E092079CF428E914
:2013200034E0C0E0F90145915491841795072CF4CF5F2E5F3F4FC436A9F76BE281E00E94BA
:20134000131205C060E281E00E941312C0E08C2F45DFC82F60E280E00E9413126C2F6295C8
:201360006F70605D82E00E9413126C2F6F70605D83E00E9413126AE284E00E94131263E489
:201380003BC0243009F042C020E633E010E0F90145915491481759072CF01F5F2E5F3F4FD1
:2013A0001E38A9F7812F26DFEC01143638F06BE280E00E9413126D2F605D05C060E280E0EF
:2013C0000E9413126BE281E00E941312BE0184E0759567958A95E1F76F70605D82E00E9411
:2013E00013126C2F6F70605D83E00E9413126AE284E00E94131266E485E00E94131260E03A
:2014000086E0DF91CF911F910C941312DF91CF911F910895CF93C82F80910701882341F0B6
:201420001092070180E050DF8AE699E086DE04C060E081E00E942C12C33041F48AE699E0D0
:201440009FDE81E0809307018CE30DC0C450C23048F480910801843011F483E001C084E0BA
:20146000809308018DE3CF91089588EE93E0B1DCF894809170008E7F8093700088E0809355
:20148000B6001092B2008091B00085608093B0008091B6009091B60094708170892BC1F7DA
:2014A0008FEF87BB80917000816080937000789410926B01109275018CE080936A018BE000
:2014C00080937001809374018BE090E0909373018093720110926C0110926D0110926E01D8
:2014E00010926F0181E0809371010895DF92EF92FF920F931F93CF93DF93E82E8091710113
:20150000811107C0E0916A01F0E0E25FFE4F808102C080916A0162DEC82FD82ED2948FE0E7
:20152000D822809175015ADE182FF82EF2949FE0F92280916B0152DED82F082F02950F7064
:2015400060E36D0D80E06FD7CF7060E36C0F81E06AD760E36F0D82E066D71F7060E3610FE9
:2015600083E061D760E3600F84E05DD76D2F6F70605D85E058D760E086E055D781E069D747
:2015800060E081E069D783E0E81629F082E0E81621F086E103C085E101C087E1DF91CF91F6
:2015A0001F910F91FF90EF90DF900895DF92EF92FF920F931F93CF93DF93082F80910D01C0
:2015C000882361F080916A0180934101809175018093420180916B0180934301809171010A
:2015E000811107C0E0914101F0E0E25FFE4F808102C080914101F2DD682F6F7090E3D92EAC
:20160000D60EC82FC295CF7080914201E7DD682F6F7020E3E22EE60E182F12951F70105DDA
:2016200080914301DBDD682F6F7030E3F32EF60E982F92959F70D0E3D90FC05D80914001E8
:20164000882311F060E001C060E86C2B80E0EBD680914001882311F060E001C060E86D2900
:2016600081E0E1D680914001813011F060E001C060E8612B82E0D7D680914001813011F066
:2016800060E001C060E86E2983E0CDD680914001823011F060E001C060E86D2B84E0C3D681
:2016A00080914001823011F060E001C060E86F2985E0B9D660E086E0B6D681E0CAD601110B
:2016C000D6D660E081E0C8D681E080930D01043041F4E0914001F0E0EF5BFE4F80818F5F2C
:2016E00009C0053049F4E0914001F0E0EF5BFE4F8081815080832BC0033041F4809140011C
:20170000811102C082E00CC081500AC0023059F480914001823019F41092400118C08F5F73
:201720008093400114C0013091F4F8948091410180936A018091420180937501809143013C
:2017400080936B0178941092400186E12AC0809141018F3F19F487E180934101809141018C
:20176000883110F010924101809142018F3F19F48BE380934201809142018C3310F0109224
:201780004201809143018F3F19F48BE380934301809143018C3310F01092430110920D0167
:2017A00088E1DF91CF911F910F91FF90EF90DF900895CF93C82F80910C01882369F0109269
:2017C0000C018091710161E0813019F486E295E002C082E295E0F5D5C43089F48091710144
:2017E000813031F41092710161E08EE195E019C081E08093710161E08AE195E012C0C53033
:2018000091F480917101811107C081E08093710161E086E195E005C01092710161E082E1E7
:2018200095E0CFD506C0C13021F4C0930C0186E101C084E2CF910895AF92BF92CF92DF9274
:20184000EF92FF920F931F93CF93DF931F92CDB7DEB7982F2091720130917301822F998397
:20186000BDDCF82EC82EC2948FE0C82280917401B5DC082FD82ED2949FE0D922809170014E
:20188000ADDC182FE82EE2942FE0E2222091440130E0220F331F265D3A4FF901A590B490D1
:2018A000F501849160E36C0DBED5F501319684916F2D6F70605DB7D5F5013296849160E322
:2018C0006D0DB1D5F501339684910F7060E3600FAAD5F5013496849160E36E0DA4D5F50182
:2018E00035968491612F6F70605D9DD560E086E09AD581E0AED560E081E0AED59981933070
:2019000021F0923021F08CE103C08BE101C08DE10F90DF91CF911F910F91FF90EF90DF90DC
:20192000CF90BF90AF9008951F93CF93DF93C82F80910B01882371F080917201909173015E
:2019400080933D018091740180933E018091700180933F0180910A01811112C080913D01BA
:201960003DDCD82F182F12951F7060E280E05BD560E281E058D569E582E055D569E527C019
:20198000813091F480913E0129DCD82F182F12951F7060E280E047D560E281E044D56DE46D
:2019A00082E041D56DE413C08230E1F480913F0115DCD82F182F12951F7060E280E033D594
:2019C00060E281E030D564E482E02DD564E483E02AD560E3610F84E026D56D2F6F70605DBF
:2019E00085E021D560E086E01ED580E032D5C1113ED560E081E030D581E080930B01C4308D
:201A000041F4E0910A01F0E0E35CFE4F80818F5F09C0C53049F4E0910A01F0E0E35CFE4FF7
:201A20008081815080832EC0C33041F480910A01811102C082E00CC081500AC0C23059F443
:201A400080910A01823019F410920A011BC08F5F80930A0117C0C130A9F4F89480913D01D7
:201A600090E0909373018093720180913E018093740180913F0180937001789410920A0173
:201A80008CE154C080913D018F3F19F483E680933D0180913D01843610F010923D018091E7
:201AA0003E01811103C08CE080933E0180913E018D3018F081E080933E01809174018230D4
:201AC00071F5809172019091730183709927892B31F5809172019091730164E670E00E94A5
:201AE0006916892B51F4809172019091730160E971E00E946916892B91F48DE190913F0192
:201B0000911102C080933F0190913F01891718F481E080933F0110920B018EE107C0E091F8
:201B20003E01F0E0EA5DFE4F8081E8CFDF91CF911F910895CF93C82F80910901882369F0B5
:201B400010920901E0914401F0E0EE0FFF1FE05DFA4F61E08081918134D4C430B1F48091AC
:201B60004401823018F01092440103C08F5F80934401E0914401F0E0EE0FFF1FE05DFA4F4F
:201B800061E0808191811DD410C0C53041F480914401811102C082E0EACF8150E8CFC130C8
:201BA00021F4C09309018CE101C080E2CF9108951F93CF93DF93182F262FEA01633010F482
:201BC000245F2197FE01F695E795F695E795CE0160E971E00E946916E60FF71FEC0FFD1F11
:201BE000CE0164E670E00E946916E61BF70B8DE0289F90011124C901039665E070E00E94C4
:201C00007D16CB01810F911D8E0F9F1F67E070E00E946916DF91CF911F910895DF92EF9205
:201C2000FF920F931F93CF93DF93182F40917201509173016091740180917001B9DFE82F74
:201C4000F0E0EE0FFF1FE35AFA4F8591949161E0B8D380917401C2DAF82ED82ED2949FE0D9
:201C6000D92280917001BADA082FE82EE2942FE0E2222091440130E0220F331F265D3A4FE8
:201C8000F901C591D491FE01849160E36D0DCBD3FE01319684916F2D6F70605DC4D3FE0177
:201CA0003296849160E36E0DBED3FE0133968491602F6F70605DB7D360E086E0B4D381E0D8
:201CC000C8D360E081E0C8D3133021F0123021F08CE103C08BE101C08DE1DF91CF911F913B
:201CE0000F91FF90EF90DF9008951F920F920FB60F9211242F933F934F935F936F937F93C1
:201D00008F939F93AF93BF93EF93FF9380916C0190916D01A0916E01B0916F0180389047DA
:201D2000A105B10588F080916B018E3169F480916B01815080936B0110926C0110926D014A
:201D400010926E0110926F0180916C0190916D01A0916E01B0916F010196A11DB11D8093CC
:201D60006C0190936D01A0936E01B0936F0180916B018F5F80936B0180916B018C3309F0F1
:201D800071C010926B01809175018F5F80937501809145018F5F80934501809175018C3322
:201DA00008F45FC01092750180916A018F5F80936A0180916A01883108F453C010926A01B7
:201DC000809170018F5F80937001809174018230F1F4809172019091730183709927892B72
:201DE000B1F4809172019091730164E670E071D7892B49F4809172019091730160E971E09F
:201E000068D7892B21F481E080933C0102C010923C0120917001E091740130E0F0E0EA5D39
:201E2000FE4F408180913C0190E0840F911D82179307BCF491E090937001809174018F5F39
:201E400080937401809174018D3058F090937401809172019091730101969093730180937D
:201E600072011BD0FF91EF91BF91AF919F918F917F916F915F914F913F912F910F900FBE38
:201E80000F901F901895109278018CE08093770110927601109279010895CF93DF9380917E
:201EA0007901882391F18091760181112EC080916B0181112AC090917501809178019813AE
:201EC00024C090916A018091770198131EC080917901813029F08230C1F4C6E0D5E002C0A7
:201EE000C4E0D0E0409172015091730160917401809170015DDE8D1740F0C81730F081E09E
:201F000080937601DF91CF91DDC5DF91CF9108958111EBD580915C01882311F08DE70895DB
:201F20008AE00895FF920F931F93CF93DF93F82E80917101811107C0E0917701F0E0E25FE5
:201F4000FE4F808102C08091770148D9C82F082F02950F708091780141D9D82F182F1295EA
:201F60001F7061E480E05FD26CE481E05CD260E3600F82E058D2CF7060E36C0F83E053D25A
:201F800060E3610F84E04FD26D2F6F70605D85E04AD260E086E047D281E05BD260E081E062
:201FA0005BD283E0F81629F082E0F81621F080E703C08FE601C081E7DF91CF911F910F9101
:201FC000FF900895FF920F931F93CF93DF93182F80913301882341F08091770180934701D0
:201FE000809178018093480180917101811107C0E0914701F0E0E25FFE4F808102C0809134
:202000004701ECD8682F6F7090E3F92EF60EC82FC295CF7080914801E1D8082F0F70005DED
:20202000D82FD295DF70D05D61E480E0FCD16CE481E0F9D1C05D80914601882311F060E068
:2020400001C060E86C2B82E0EED180914601882311F060E001C060E86F2983E0E4D18091B1
:202060004601813011F060E001C060E86D2B84E0DAD180914601813011F060E001C060E824
:20208000602B85E0D0D160E086E0CDD180E0E1D11111EDD160E081E0DFD191E09093330160
:2020A000143041F4E0914601F0E0E95BFE4F80818F5F09C0153049F4E0914601F0E0E95B88
:2020C000FE4F80818150808328C0133049F480914601811103C0909346011FC081500AC0E5
:2020E000123059F480914601813019F41092460114C08F5F8093460110C0113071F4F89434
:202100008091470180937701809148018093780178941092460180E71DC0809147018F3F95
:2021200019F487E18093470180914701883110F010924701809148018F3F19F48BE380931D
:202140004801809148018C3310F0109248011092330182E7DF91CF911F910F91FF900895A7
:20216000CF93C82F90917901913059F030F0923061F460E08EE895E007C060E086E995E014
:2021800003C060E082E995E01CD160E081E064D1C33021F0C23021F085E703C084E701C037
:2021A00086E7CF910895CF93C82F80917901813069F030F0823081F460E082E895E009C098
:2021C00060E08AE895E0FDD080E005C060E086E895E0F7D081E09FD160E081E03DD1C43088
:2021E00041F480917901823090F4809179018F5F09C0C53051F480917901882341F08091F5
:20220000790181508093790102C0C13011F087E701C085E7CF91089585B18F6085B984B102
:20222000876084B981E08DBD8CE58CBD08958EBD0DB407FEFDCF8EB50895289A289887E5CD
:20224000F6DF80E0F4DF282F287330E093E0359527959A95E1F7F901E655FA4FE491E0930E
:202260004C01F901EE0FFF1FE656FA4F2591349130934B0120934A01089527982698249819
:2022800085B1806D85B91DB88EB18C608EB98CE080936B0080ED80936C0080EC8CBB8DBBC5
:2022A0000E94D90880937A01089523B18CB190E0809590958C709927922F9095907D892B52
:2022C00086FD09C087FD17C082FD17C083FD17C084FD17C00BC084E090914F01992331F0D5
:2022E00090914D01992379F010924F0180EC8CBB10924501089585E0EFCF83E0EDCF82E07C
:20230000EBCF81E0E9CF80934E0181E080934D0180913B01882341F3C5D3E6CF1F920F92FB
:202320000FB60F9211242F933F934F935F936F937F938F939F93AF93BF93EF93FF93B5DFF6
:20234000FF91EF91BF91AF919F918F917F916F915F914F913F912F910F900FBE0F901F9063
:2023600018951F920F920FB60F9211242F933F934F935F936F937F938F939F93AF93BF935F
:20238000EF93FF9392DFFF91EF91BF91AF919F918F917F916F915F914F913F912F910F90B9
:2023A0000FBE0F901F901895F89480914D01882329F080914E0110924D0101C080E0789429
:2023C0000895AC01809156018111FCCF20E030E0922FFA01E20FF31F8491882361F02A31B3
:2023E000310541F0E491D901A057BE4FEC932F5F3F4FEECF9AE1E92FF0E0E057FE4F108252
:20240000973048F081E080937B011092AA0183E08093550104C010927B011092AA0181E024
:202420008093560108958A3128F4E82FF0E0E057FE4F6083089580E090E020E2FC01E057CD
:20244000FE4F208301968A319105C1F71092A9010895809353010895909156019111FCCF1A
:2024600060937B011092AA01809356010895109254010895CF93C82F80913401882319F0B2
:20248000DADF10923401809135010E94EE08282F2F70205D982F92959F70905D83E48093F6
:2024A000900184E58093910182E58093920180E280939301909394012093950160E081E0C5
:2024C000CBDF90913501C43011F49F5F03C0C53019F4915090933501809135018F3F11F4EB
:2024E0001092350180913501803118F08FE0809335019091E700809135018F70907F982B2C
:202500009093E700C13021F4C09334018CE501C08DE5CF9108958093520108956630A8F54C
:2025200096ED980F913568F4813608F08F7D8A52E82FF0E0EE0FFF1FEE54FA4F25913491B0
:2025400002C020E030E0562F517060FD02C040EF01C04FE06695E62FF0E0E458FE4FBF01FC
:202560006C5E7F4F922F9F7084E0369527958A95E1F7552311F09295907F80818423892B06
:2025800080833596E617F70769F7089591E0811101C090E09195ECE7F1E084E18E0F919351
:2025A0008E13FDCF089580E0F1DFE7EEF0E080818F60808387EB8093E50087E08093E6007F
:2025C000A4EEB0E080EC8C938C9188608C938081806E80831092560108951F920F920FB68B
:2025E0000F921124FF920F931F932F933F934F935F936F937F938F939F93AF93BF93CF935A
:20260000DF93EF93FF9380914F0181110CC0809151018F5F80935101843028F081E080937F
:202620004F011092510180915701833071F4809150018F5F80935001813148F081E08093C3
:2026400057018FE08093500102C0109250018091360181508093360190917B01992381F06D
:20266000811110C080915501811104C081E08093560108C08091550181508093550102C045
:202680001092AA0180915601813009F05CC0F0905401C0E0D0E010E000E06C2F8091AA0173
:2026A0009E01280F311D87FD3A9537FD15C0111113C08091AA01FE01E80FF11D87FDFA95D2
:2026C000E057FE4F8081082F001F0027001F8F7721F411E01C0F01C080E2002321F034E037
:2026E0003F1508F480E21ADF2196C630D105A9F6ECEEF0E0DF01A057BF4F8C918193E11557
:2027000081E0F807B9F780915301882321F081E08093F40002C01092F40090915201809143
:20272000EC00992311F0846001C08B7F8093EC00113011F48AEF03C08091AA018F5F809303
:20274000AA011092560180913601811103C083E080933601809154018A3019F41092540167
:2027600005C0809154018F5F80935401FF91EF91DF91CF91BF91AF919F918F917F916F9108
:202780005F914F913F912F911F910F91FF900F900FBE0F901F901895E82FF0E0EE0FFF1F91
:2027A000EA5DF94F8591949161E00BCECF93DF9380915A0181110DC010925B01E091AB017B
:2027C000F091AC01859194918093590181E080935A018091590181116CC080915B01882313
:2027E00021F0815080935B015DC0C091AB01D091AC0120915A01CE01820F911D820F911D07
:20280000FC01459154912F5F452B69F1FC016591749180E290E05DD260935B0120935A0152
:20282000FE01E20FF11DE20FF11D85919491209181008130910511F42E7F01C02160209340
:202840008100F8941092850010928400292F332727FD3A9520938700809386007894809189
:202860005A018F5F0AC0FE01E20FF11DE20FF11D85919491882321F081E080935A0112C0B0
:2028800010925A0110925C01809181008E7F8093810086ED93E10E94C008109280001092F4
:2028A00081002D9AE091AB01F091AC018591949101C0815080935901DF91CF91089580E876
:2028C00080938000E1E8F0E080E1808380818160808310928900809139018093880086EDFF
:2028E00093E10C949D08CF93C82F80913801882391F010923801809158014EDFE091580114
:20290000F0E0EE0FFF1FEA5CF94F859194919093AC018093AB01C430A9F4809158018111E7
:202920000FC081E0E82FF0E0EE0FFF1FEA5DF94F2591349191E0980F232B11F0892FF2CF7B
:2029400081500FC0C53019F5809158018F5FE82FF0E0EE0FFF1FEA5DF94F25913491232B22
:2029600019F08093580102C0109258018091580113DFE0915801F0E0EE0FFF1FEA5CF94F86
:20298000859194919093AC018093AB010DC0C13021F4C09338018BE208C0C33029F481E068
:2029A0008093380188E201C08AE2CF910895CF93C82F80913701882369F010923701109215
:2029C0005A017DDF61E08EE196E0FBDC81E080935C010DC080915C01811109C086ED93E1F5
:2029E0000E94C008109280001092810053C0C43041F480913901803510F080E50BC08B5FD2
:202A000009C0C53081F4809139018B3010F486E001C08550809339011092890080913901BA
:202A2000809388003CC0C13019F580915C01882399F010925C01809181008E7F809381002C
:202A400086ED93E10E94C00810928000109281002D9AC093370121C010925B01C0935A0101
:202A60002EDF61E08EE196E0ACDCC0935C0117C0C330A9F410925C01809181008E7F8093D3
:202A8000810086ED93E10E94C00810928000109281002D9A81E0809337018AE201C08BE212
:202AA000CF910895CF93CAE02D9881E090E00E94E9062D9A81E090E00E94E906C150A1F714
:202AC000CF910895CF93ECE3F6E0859194919093AC018093AB0110925B01C1E0C0935A01DB
:202AE000EEDEC0935C01CF910895CF93DF9310925C01C1E8D0E088818E7F888386ED93E129
:202B00000E94C0081092800018822D9ADF91CF9108954ADC8130E9F70895BF92CF92DF92E4
:202B2000EF92FF920F931F93CF93DF9300E810E080E8F8018083C1E8D0E081E18883888150
:202B4000816088831092890080E58093880087E8C82ED12CBB24B394F601B08296E8E92E18
:202B6000F12C8FE3F701808382E390E00E94E906F601B0828EEDF70180838CE291E00E9445
:202B8000E906F80110821882DF91CF911F910F91FF90EF90DF90CF90BF9008951092700027
:202BA00060E085E39BE00DDCB4DF60E080E39BE008DCFADB8330E9F760E08DE29BE001DC05
:202BC000F3DB8430E9F760E087E29BE0FADBECDB8230E9F760E082E29BE0F3DBE5DB8530DF
:202BE000E9F760E08CE19BE0ECDB93DF80E88093800081E18093810080918100816080931D
:202C000081001092890080E580938800C8EC10928700C09386008EE190E00E94E906C550CD
:202C2000CF35A9F7109280001092810060E083E19BE0C7DB1C9BFECF6CDF8091E400877F20
:202C40008093E400C0E0D0E001E010E0802F0C2E01C0880F0A94EAF78093EC0088EE93E0B4
:202C60000E94E9062196C730D10581F7ECEEF0E08FEF8193E11591E0F907D9F71C9BFECFD0
:202C800084E690E00E94E9061C99FECF8091E40088608093E40080E00E9464090E942E092B
:202CA000845C91408738910560F060E081E09BE088DB33DF2EDF0E946A0960E081E0CCDBC3
:202CC00028DF81E00E948A0624DF88E180936000FFCFAA1BBB1B51E107C0AA1FBB1FA617B9
:202CE000B70710F0A61BB70B881F991F5A95A9F780959095BC01CD01089597FB072E16F472
:202D0000009406D077FD08D0E4DF07FC05D03EF4909581959F4F0895709561957F4F089504
:202D2000F894FFCF01010101010105010301020101010C0102030405060708090A0B0C01C9
:202D400002030405060708090A0B001F1C1F1E1F1E1F1F1E1F1E1F01010F03010150FFFF61
:202D6000FFFFFFFFFFFFFFFFFFFFFFFFFFFFFFFFFFFFFFFFFFFFFFFFFFFFFFFFFFFFFFFF73
:202D8000FFFFFFFFFFFFFFFFFFFFFFFFFFFFFFFFFFFFFFFFFFFFFFFFFFFFFFFFFFFFFFFF53
:202DA000FFFFFFFFFFFFFFFFFFFFFFFFFFFFFFFFFFFFFFFFFFFFFFFFFFFFFFFFFFFFFFFF33
:202DC000FFFFFFFFFFFFFFFFFFFFFFFFFFFFFFFFFFFFFFFFFFFFFFFFFFFFFFFFFFFFFFFF13
:203800000C949D1EFFFFFFFFFFFFFFFF0C94211E24971ED200E800BF07E000937F000FEF2D
:2038200005B90EB900E80093610002E00093610000E00093C5000CE00093C40002E0009361
:20384000C00008E10093C10006E00093C20001E005BF02E005BF789400E500936C0000E80D
:203860000CBB0DBB08C001E005BF00E005BFF894E0E0F0E009951E9BF6CF1C990AC00E944F
:20388000851E0B3111F4F89410C00FE30E947B1EF2CF02E00093C00007E003BF889500E01F
:2038A00003BFE9CF09E50E947B1E0E94851E0136C9F3013461F41ED10E94851E2B2F220FE4
:2038C000220B0883B9832A832B830DE0ECCF0536B9F400E0088309830A830B8317B710FD1C
:2038E000FDCF43E0F3D0F80147BFEFD02A813B810058F7D000301843204030407CF3E5CF54
:20390000023641F409E50E947B1E00E00E947B1E00E8C9CF023431F4EDD00E94851EEED05B
:20392000F5D0C1CF073631F4E5D00E94851EE6D05DD1BBCF0235A1F417B710FDFDCF11E103
:2039400000E0002E17BFC1D0000F111F0F5F1F4FF8010491CCD0A2D00491C9D0BFD0A5CF0A
:20396000033629F40E94851E802F90E0AECF033479F40E94851E902B17B710FDFDCF41E0A4
:20398000A5D08CD00C0147BFE895A0D0A7D09DCF0D36A9F49BD02A813B8100301C412040D4
:2039A000304024F00FE30E947B1E8FCF17B710FDFDCF45E0198172D047BFE89586CF043440
:2039C00061F417B710FDFDCF84D00E94851E00BDFA9AF99AF999FECFD8CF043621F479D0D0
:2039E000F89A00B5BACF003511F00C3409F46DCF053421F408E10093600067CF003711F4AC
:203A000003E551CF043729F405E70E947B1E00E04ACF083721F0093711F0043519F40E94AD
:203A2000851E53CF0335A1F401E40E947B1E06E50E947B1E02E50E947B1E02E40E947B1E6B
:203A40000FE40E947B1E0FE40E947B1E04E52BCF063529F401E30E947B1E04E324CF03379C
:203A600041F405E00E947B1E04E90E947B1E0EE11ACF0B3109F419CF0FE315CFFD0100817B
:203A80001181228133810F5F05D0008311832283338308951F4F2F4F3F4F0895000F111F95
:203AA000F80108950ED03C911397000F111F221F331F02D0139708950D931D932D933C9351
:203AC00008950D911D912D910895E895088119810895088101BD198112BD08952A813B81B1
:203AE0000F5FD8DF088319832A833B8308950E947B1EECCF0E94851EB02F0895802F9B2F42
:203B00000E94851EAE01202F8C0108950E94AB1EEF97EF9722972801DA01253431F580E025
:203B200090E007C00E94851EFE01E80FF91F0083019684159505B0F317B710FDFDCF80E004
:203B400090E00EC047D045D012BDFE01E80FF91F008100BDFA9AF99AF999FECF8FDF019655
:203B60008415950578F30DE029C0263431F59ADF31D0C8010E94851E602E0E94851E702E58
:203B800041E028D0F801030147BF26D027D00EEF400E0FEF501E042D052961F705E0FC01CC
:203BA00007BFE89517B710FDFDCF11E1002417BF13D03C91139708D0D6CF0FE3EF96EF965C
:203BC0002296E8E00C94B41E359527951795079573CF01BD76DF6ECFE89573CF3C910E5F9A
:203BE00059DF3C932E931E930E9308950E94AF1EC801DA01253469F4EDDFEBDF12BD3EDFC3
:203C0000F89A00B50E947B1E0197082F092BA1F710C0263471F446DFDDDF0ED013970F5F21
:203C20001F4F0AD0DBDF0297082F092BA9F7D2DFCBDFE4E00C94B81EF80104910E947B1E80
:203C400040CF1895980101501040232BD9F7089500E80093610003E00093610000E000938D
:203C6000700008E00093B60008EC0093B30000E000936E0001E0009381000093B0000091BF
:203C8000B600102F11700470012BC9F708EE13E0D9DF20E00FEF06BB07BB00E00093850034
:203CA000009384000093B200B99BFECF00938100B09916C0009184005091850040E010E0C9
:203CC000040F151F0B3638E1130734F0009166000A950093660009C0083E37E1130724F41D
:203CE000009166000395F5CF21E001E000938100222381F208950093C6000091C00006FF77
:203D0000FCCF00640093C0000895392F282F80E090E057F41091C00017FD0AC0803107E2D1
:203D2000900734F40196F6CF1091C00017FFFCCF0091C600822F932F08950FE30DBF01E020
:203D40000EBFC0E4D3E00E94C31E0E94081C0E94C51E0C94C51E7A926A925A924A92BA93D1
:203D6000AA939A938A9308957F806E805D804C80BB81AA8199818881F0E00FB6F894CE0F01
:103D8000DF1F0FBE089501E0089500008895FECF63
:00000001FF
