:1000000099C50000B3C500000C94A9110C94861189
:10001000ADC500000C94630EA9C50000A7C5000083
:10002000A5C50000A3C500000C945E089FC5000094
:100030009DC500009BC5000099C5000097C5000044
:1000400095C5000093C5000091C500008FC5000054
:100050008DC500008BC500000C94E4124F6666004D
:100060004F6E004F6666004F666600507265737390
:1000700020656E74657220746F20736C6565700006
:100080004A756D7020746F20626F6F746C6F61645D
:100090006572000A4E03B7060B0000870614490379
:1000A00000001543030000160000720A1736030013
:1000B00000180000D20A1922030000240000D50B0A
:1000C0001B1D0300001C0000180C1D110300001E66
:1000D0000000860C1FFE0200002000008C0D6F91B6
:1000E000020000738C020000700000890F71800212
:1000F0000000720000D90F7D0000780F28F8020080
:10010000002A00006A142B0000CE143CEC02000010
:100110003D0000060A5AE40200005BDC0200005CBD
:10012000CC0200005D000032125EC10200005F00E0
:1001300000B70560B1020000610000D20562A102B3
:1001400000006300001D0664970200006500005B6C
:1001500006747B020000750000A810766F02000094
:10016000770000CB1000000000000A045A0A020BBE
:100170000A05140B030A14040A14021514030A14C2
:10018000056F15041B15021615031415051B17041E
:10019000191701181703161705191904171901243F
:1001A0001903161905171B04151B021C1B03141B2E
:1001B00005151D041F1D011E1D031C1D051F1F0409
:1001C0001D1F01201F031C1F051D6F04146F0273E8
:1001D0006F030A6F052873047473027073036F73DF
:1001E000057474047374027574036F74057371017C
:1001F00072710370760476760177760374760576ED
:1002000028046F28022A28030A28053C29022A29E3
:1002100003283C04283C023D3C030A3C055A5A048E
:100220003C5A025B5A030A5A050A5B04645B025C8F
:100230005B035A5B055E5C015D5C035B5E045B5EB9
:10024000025F5E035A5E056060045E6002616003E7
:100250005A60056262046062026362035A62056466
:1002600064046264026564035A64055B0000004133
:10027000646A757374204D6F6465004D6F6465002A
:1002800041646A7573742054696D650054696D65C5
:1002900000416C61726D004B657920436C69636B42
:1002A000004175746F20506F7765722053617665D9
:1002B00000506F7765722053617665204D6F6465DD
:1002C00000426F6F746C6F616465720041646A759F
:1002D000737420636F6E7472617374004469737019
:1002E0006C6179004F7074696F6E730054656D7046
:1002F00065726174757265004D757369630043685A
:10030000616E6765204461746520466F726D61742B
:100310000041646A757374204461746500446174BB
:1003200065004368616E676520436C6F636B2046B0
:100330006F726D61740041646A75737420436C6FF1
:10034000636B00436C6F636B0054696D65004156CD
:100350005220425554544552464C5920C7C3C300FD
:10036000AA03A703A403A1039E039B03980394037A
:1003700091038D038A03860382037E037B03770345
:1003800072036E036A03660361035D03580353033C
:100390004F034A03450340033B03360330032B035B
:1003A000260320031B0315030F030A030403FE02A5
:1003B000F802F202EC02E602DF02D902D302CC021A
:1003C000C602BF02B902B202AC02A5029E029702A7
:1003D00091028A0283027C0275026E026802610247
:1003E0005A0253024C0245023E02370230022902F1
:1003F00022021B0215020E0207020002F901F2019D
:10040000EC01E501DE01D801D101CB01C401BE013F
:10041000B701B101AA01A4019E01980192018C01CA
:10042000860180017A0174016E01680163015D013A
:10043000580152014D01470142013D01380133018C
:100440002E01290124011F011A01150111010C01BE
:1004500008010301FF00FB00F600F200EE00EA00D5
:10046000E600E200DE00DB00D700D300CF00CC00C6
:10047000C800C500C200BE00BB002F033903420301
:100480004B0353035C0364036C0373037B0382031A
:1004900088038F0395039B0326031C0312030703A2
:1004A000FD02F202E702DC02D002C502B902AD028F
:1004B000A102950289027C027002630257024A027D
:1004C0003E023202250219020C020002F401E80188
:1004D000DC01D001C401B801AD01A20196018C017B
:1004E000810176016C01620158014E0144013B011A
:1004F00032012901200117010F010701FF00F70058
:10050000F000E900E100DB00D400CD00C700C1002D
:10051000BB003132480032344800323448003132B6
:10052000480031324800323448003C053605300579
:10053000000102030405040500010203040502038F
:10054000000159594D4D4444004D4D444459590002
:1005500044444D4D59590079057605730570056D74
:10056000056A0567050000535500534100465200D7
:100570005448005744005455004D6F00362D370045
:10058000312D35004F666600362D3700312D350090
:100590004F66660008010801080108010801100201
:1005A0001002200409090909090A0A0B510A802AC4
:1005B0000000000A510A000059551801111E111BB4
:1005C000500B411B411F1101511F511B0000000026
:1005D00000000000000000000000510F913941149C
:1005E0009131411E410E411D500F8020101548864B
:1005F0004014780570855115510E5195518E2190FA
:1006000081205015484450C528C0282009500000BA
:100610000000000000000000504C4159494E4700C6
:10062000F10A3E0A8109E8085A0834071E0700004B
:100630004B0A8809F70862083C07260740060000B5
:1006400000002000C8002000C3002000BE002000E1
:10065000B9002000B4002000AF002000AA00200054
:10066000A5002000A00020009B0020009600200094
:10067000910020008C0020008700200082002000D4
:100680007D00200078002000730020006E00200014
:10069000690020006400080001002000C80020005C
:1006A000C3002000BE002000B9002000B4002000DC
:1006B000AF002000AA002000A5002000A00020001C
:1006C0009B00200096002000910020008C0020005C
:1006D00087002000820020007D0020007D00200097
:1006E00082002000870020008C0020009100200064
:1006F000960020009B002000A0002000A500200004
:10070000AA002000AF002000B4002000B9002000A3
:10071000BE002000C3002000C80000000000576891
:100720006973746C650003000400DE0104003F017E
:1007300000000100536972656E6532000000200000
:10074000900120008D0120008A01200087012000F7
:1007500084012000810120007E0120007B01200017
:100760007801200075012000720120006F01200037
:100770006C01200069012000660120006301200057
:10078000600120005D0120005A0120005701200077
:1007900054012000510120004E0120004B01200097
:1007A0004801200045012000420120003F012000B7
:1007B0003C012000390120003601200033012000D7
:1007C000300120002D0120002A0120002A012000F4
:1007D0002D012000300120003301200036012000CF
:1007E000390120003C0120003F012000420120008F
:1007F00045012000480120004B0120004E0120004F
:100800005101200054012000570120005A0120000E
:100810005D012000600120006301200066012000CE
:10082000690120006C0120006F012000720120008E
:1008300075012000780120007B0120007E0120004E
:100840008101200084012000870120008A0120000E
:100850008D012000900100000100536972656E65F2
:100860003100030004003F010200EF000800EF0028
:100870000400EF000400BE000200D5000800EF00F5
:100880000400D5000800BE000800D5000200EF00FB
:100890000800EF000400BE0004009F0002008E006C
:1008A0000800010004008E0002009F000800BE0046
:1008B0000400BE000400EF000200D5000800EF00B5
:1008C0000400D5000800BE000800D5000200EF00BB
:1008D00008001C0104001C0104003F010200EF009D
:1008E000040001000000010041756C64204C616E41
:1008F000672053796E650002000400AA0108007E9B
:1009000002080038020800FA010800DE010400AA0B
:100910000104007E0204007E0204007B010800DE68
:10092000010800AA0108007B010800520104003FF1
:100930000104007E0204007E020400DE010800AA19
:10094000010800DE010800FA01080038020400FA7C
:10095000010800DE010800FA010800380208007EE4
:10096000020400A40208007E02080038020800FA0F
:100970000108007E020400FA0102003802000001B2
:10098000004D696E7565740003001000A40210002C
:10099000F602100024031000F60204007E0210008C
:1009A000380210007E021000A40210007E02040033
:1009B000FA011000DE011000FA0110001802100008
:1009C000FA011000520110007B011000920110008A
:1009D0007B011000520110007B01100092011000F9
:1009E0007B0104003F0108007B0108003F0120005B
:1009F000AA0120007B011000520108007B010800C1
:100A0000AA0108007B012000AA0120007B01100040
:100A1000520108007B010800AA0108007B012000A8
:100A2000AA0120007B011000520108007B01080090
:100A3000AA010800C3010400FA0100000100547576
:100A4000726B6579206D6172636800030008007B3A
:100A5000010800920108007B010800920108007B58
:100A6000010800FA010800AA010800DE01040038AC
:100A700002080001000800BC030800F60208003864
:100A8000020400FA01080001000800F60208005AFA
:100A9000020800FA010400DE01080001000800F667
:100AA0000208007B010800920108007B0108009207
:100AB0000108007B010800FA010800AA010800DE15
:100AC0000104003802080001000800BC030800F619
:100AD00002080038020400FA01080001000800F6CC
:100AE000020800DE010800FA0104003802000001DB
:100AF0000046757220456C697365004572726F72AD
:100B00002054656D7065726174757265004C434464
:100B1000207465737400536F756E6400446F776E54
:100B2000005269676874005570004C656674005423
:100B30006573740011241FBECFEFD4E0DEBFCDBFBC
:100B400011E0A0E0B1E0E2E1FDE202C005900D920B
:100B5000A234B107D9F721E0A2E4B1E001C01D92AF
:100B6000A53BB207E1F7AED10C94871649CA909124
:100B70000401992341F01092040161E080E890E0C3
:100B80000E94D9110DC0813021F488E1809360006A
:100B9000FFCF833029F481E0809304018EE508952E
:100BA0008FE5089590910301992341F0109203017C
:100BB00061E08BE690E00E94D9110FC0813031F4E2
:100BC00080934201809303018AE00895833029F4E1
:100BD00081E08093030180E6089581E60895CF9334
:100BE000DF9380910601F8D2C82FD82FD295DF70FD
:100BF0006DE480E00E940B1269E481E00E940B1218
:100C00006EE482E00E940B1260E283E00E940B120D
:100C100060E36D0F84E00E940B126C2F6F70605DBB
:100C200085E00E940B1260E086E00E940B1260E0FB
:100C300081E0DF91CF910C942412909102019923CD
:100C400051F0109202018091050181111AC061E0FA
:100C500087E690E02CC0813021F48093020182E687
:100C60000895843081F4809106018B5F8B3520F0EC
:100C70008AE5809306011DC08093060181E0809380
:100C80000501ADDF16C08530A1F4809106018823EF
:100C900019F085508093060180910601853070F728
:100CA000109205011092060161E083E690E00E9437
:100CB000D91183E6089590910101992321F01092B2
:100CC000010191E001C090E0813021F480930101A5
:100CD00084E608958450823030F4809143018095F9
:100CE0008093430102C0992381F08091430161E028
:100CF000882319F080E690E002C08CE590E00E9425
:100D0000D91160E081E00E94241285E60895909157
:100D10000001992319F11092000162E580E00E9420
:100D20000B1265E481E00E940B1266E582E00E94EE
:100D30000B1260E383E00E940B1261E384E00E94E7
:100D40000B1260E385E00E940B1260E086E00E94D7
:100D50000B1260E081E00E94241207C0833029F466
:100D600081E0809300018AE008958BE00895CF939D
:100D7000C82F80917301837019F080E0B3D302C053
:100D800080E03BD7C11102C08AE001C084E1CF916D
:100D9000089590E0492F50E09A01220F331F240F4D
:100DA000351FF901E659FE4FE491EE2379F08E13D9
:100DB0000BC0F901E559FE4FE491E61305C0F901B6
:100DC000E459FE4F849108959F5FE4CF0895019701
:100DD00028F02DE700002150E9F7F9CF089580E8C9
:100DE0008093610083E0809361001092700088E03E
:100DF0008093B60088EC8093B30010926E0081E07F
:100E0000809381008093B0009091B6008091B600ED
:100E100091708470892BC1F788EE93E0D8DF2FEFB3
:100E200031E0F89426BB27BB109285001092840015
:100E30001092B200B99BFECF109281007894B099C5
:100E400014C0409184008091850090E0982F8827FD
:100E5000840F911D8B3648E1940724F08091660041
:100E6000815006C0883E97413CF4809166008F5FB8
:100E70008093660080E001C081E030938100882388
:100E800081F20895ACDFE1E6F0E080E8808393E052
:100E9000908380BF87E080937E008FE085B980EFEC
:100EA0008EB9259A2D9A0E943511DBD7DAD2EDD072
:100EB0008CE090E0BFD10E9404110E941511289A85
:100EC0000C94CA128AE080936501DCDF7894E12CEF
:100ED000C7EBD6E000E010E09AE0F92E25E0C22E44
:100EE0003AE0B32E43E0D42E5DE7A52E8091420177
:100EF000811139C00115110539F061E0C8010E9466
:100F0000D91180E00E9421120E94CC11209719F083
:100F1000FE01099506C0882329F0682F809165019C
:100F200038DFF82E80916501F816D9F0F09265014E
:100F300020E0C29EC0011124FC01ED56FF4FE49158
:100F4000EE2379F0FE120BC0FC01EC56FF4F059129
:100F50001491FC01EA56FF4FC591D49104C02F5F54
:100F6000E8CF00E010E080910501882369F09091BE
:100F70004D0180910601981738F0B09265011092EA
:100F80004D0181E0809342011F9903C01E9B0E9486
:100F9000C51523B18CB190E0809590958C70992700
:100FA000922F9095907D892BE81621F010925F0189
:100FB000E82E0AC0EE2041F080915F01813011F4EB
:100FC0000E944D11D0925F0180917E018823F1F043
:100FD00010927E01A092650180914201882381F0E8
:100FE00010924201ECEEF0E01192E11581E0F80779
:100FF000D9F78091E40080688093E4000E94CC11CE
:10100000C8E7DFE001E912E08AE0F82E8091640190
:10101000811130C080917E0181112CC080914201EC
:10102000882329F08091E4008F778093E40083B7D0
:10103000817F866083BF83B7816083BF889583B7D4
:101040008E7F83BF80914201882309F44FCF1E9980
:101050004DCF10924201ECEEF0E01192E11581E0EB
:10106000F807D9F78091E40080688093E4000E943B
:10107000CC113CCF83B7817F83BF83B7816083BFAF
:10108000889583B78E7F83BF31CFEAE6F1E0118286
:101090001082138212821582148217821682E6E66B
:1010A000F1E08FEF808381838283838382E080936A
:1010B0006E0086E287BD8CE084BD08951F920F927A
:1010C0000FB60F9211242F933F934F935F936F931B
:1010D0007F938F939F93AF93BF93CF93DF93EF93C0
:1010E000FF93CAE6D1E0E991F991309709F00995AB
:1010F00081E0C237D807B9F7E6E6F1E08081815098
:101100008E3F08F48083319681E0EA36F807B1F724
:10111000FF91EF91DF91CF91BF91AF919F918F910F
:101120007F916F915F914F913F912F910F900FBEE3
:101130000F901F901895AAE6B1E0FD012191319121
:1011400028173907C9F021E0E237F207B9F720E0A4
:1011500030E04D915D91452B41F4220F331FF90191
:10116000E659FE4F9183808307C02F5F3F4F2430A5
:10117000310579F780E0089581E00895EAE6F1E02D
:1011800020E030E0419151914817590749F4220F6E
:10119000331FF901E659FE4F1182108281E0089554
:1011A0002F5F3F4F2430310569F780E00895E6E670
:1011B000F1E020E030E0822F91919F3F31F4F9017E
:1011C000EA59FE4F10828F5F08952F5F3F4F243002
:1011D000310589F780E0089520E08A3018F02F5F0C
:1011E0008A50FBCF90E1299F90011124822B089512
:1011F000843648F02CE9280F243648F028E3280FDD
:1012000082E090E006C0282F80E090E002C081E0FC
:1012100090E044E0880F991F4A95E1F72A3018F0D2
:1012200001962A50FBCF34E0880F991F3A95E1F7D9
:10123000822B0895292F33272093C5008093C40063
:1012400082E08093C00080E18093C10086E08093BB
:10125000C20008958B9A839A80917A008068809367
:101260007A0080917A00806480937A0080917A007D
:1012700084FFFCCF48E080E090E020917A00206479
:1012800020937A0020917A0024FFFCCF50917800BF
:101290002091790030E0322F2227250F311D820F57
:1012A000931F415051F78B98839820917A002F77A4
:1012B00020937A0023E0959587952A95E1F7089584
:1012C00080937C0083E880937A00C4CF1F93CF93F0
:1012D000DF93C0DF20917C00211194C02091080190
:1012E000233009F04AC08B3223E0920784F02AE7CA
:1012F00034E0C0E0F90145915491481759072CF4A6
:10130000CF5F2E5F3F4FCA31A9F76DE213C0803225
:1013100023E092079CF428E934E0C0E0F90145910C
:101320005491841795072CF4CF5F2E5F3F4FC4363E
:10133000A9F76BE281E00E940B1205C060E281E038
:101340000E940B12C0E08C2F47DFC82F60E280E0C4
:101350000E940B126C2F62956F70605D82E00E949C
:101360000B126C2F6F70605D83E00E940B126AE2BB
:1013700084E00E940B1263E43BC0243009F042C0B9
:1013800020E633E010E0F9014591549148175907E0
:101390002CF01F5F2E5F3F4F1E38A9F7812F28DFEB
:1013A000EC01143638F06BE280E00E940B126D2FD6
:1013B000605D05C060E280E00E940B126BE281E09C
:1013C0000E940B12BE0184E0759567958A95E1F73E
:1013D0006F70605D82E00E940B126C2F6F70605D19
:1013E00083E00E940B126AE284E00E940B1266E422
:1013F00085E00E940B1260E086E0DF91CF911F91A3
:101400000C940B12DF91CF911F910895CF93C82FA9
:1014100080910701882341F01092070180E050DF9E
:1014200086E699E088DE04C060E081E00E94241234
:10143000C33041F486E699E0A1DE81E080930701A4
:101440008CE30DC0C450C23048F480910801843050
:1014500011F483E001C084E0809308018DE3CF9113
:10146000089588EE93E0B3DCF894809170008E7F4D
:101470008093700088E08093B6001092B200809153
:10148000B00085608093B0009091B6008091B60066
:1014900091708470892BC1F78FEF87BB80917000AA
:1014A00081608093700078941092730110927D0196
:1014B0008CE0809372018BE08093780180937C01B3
:1014C0008BE090E090937B0180937A0110927401FD
:1014D00010927501109276011092770181E080934D
:1014E00079010895DF92EF92FF920F931F93CF93AC
:1014F000DF93E82E80917901811107C0E09172019C
:10150000F0E0EC5EFE4F808102C08091720164DEEB
:10151000C82FD82ED2948FE0D82280917D015CDE36
:10152000182FF82EF2949FE0F9228091730154DE77
:10153000D82F082F02950F7060E36D0D80E06BD7F8
:10154000CF7060E36C0F81E066D760E36F0D82E0DF
:1015500062D71F7060E3610F83E05DD760E3600FC7
:1015600084E059D76D2F6F70605D85E054D760E0DF
:1015700086E051D781E065D760E081E065D783E000
:10158000E81629F082E0E81621F086E103C085E143
:1015900001C087E1DF91CF911F910F91FF90EF90F4
:1015A000DF900895DF92EF92FF920F931F93CF93F6
:1015B000DF93D82F80910D01882361F08091720113
:1015C0008093490180917D0180934A01809173014C
:1015D00080934B0180917901811107C0E09149010D
:1015E000F0E0EC5EFE4F808102C080914901F4DDA5
:1015F000682F6F7090E3D92ED60E82958F70C0E35E
:10160000C80F80914A01E8DD682F6F7020E3E22E59
:10161000E60E82958F7010E3180F80914B01DCDD90
:10162000682F6F7030E3F32EF60E682F62956F709F
:1016300000E3060F80914801882311F060E001C0AB
:1016400060E86C2B80E0E7D680914801882311F098
:1016500060E001C060E86D2981E0DDD6809148013D
:10166000813011F060E001C060E8612B82E0D3D6E8
:1016700080914801813011F060E001C060E86E297E
:1016800083E0C9D680914801823011F060E001C04A
:1016900060E8602B84E0BFD680914801823011F071
:1016A00060E001C060E86F2985E0B5D660E086E0C3
:1016B000B2D681E0C6D6D111D2D660E081E0C4D6E0
:1016C00081E080930D01D43041F4E0914801F0E0D5
:1016D000E75BFE4F80818F5F09C0D53049F4E09110
:1016E0004801F0E0E75BFE4F8081815080832BC092
:1016F000D33041F480914801811102C082E00CC0D6
:1017000081500AC0D23059F480914801823019F4D6
:101710001092480118C08F5F8093480114C0D130E7
:1017200091F4F894809149018093720180914A016B
:1017300080937D0180914B01809373017894109286
:10174000480186E12AC0809149018F3F19F487E161
:101750008093490180914901883110F0109249012C
:1017600080914A018F3F19F48BE380934A01809165
:101770004A018C3310F010924A0180914B018F3F47
:1017800019F48BE380934B0180914B018C3310F063
:1017900010924B0110920D0188E1DF91CF911F91C2
:1017A0000F91FF90EF90DF900895CF93C82F809115
:1017B0000C01882369F010920C018091790161E09D
:1017C000813019F486E295E002C082E295E0F1D51D
:1017D000C43089F480917901813031F4109279011B
:1017E00061E08EE195E019C081E08093790161E0CC
:1017F0008AE195E012C0C53091F4809179018111A0
:1018000007C081E08093790161E086E195E005C041
:101810001092790161E082E195E0CBD506C0C1303C
:1018200021F4C0930C0186E101C084E2CF910895B8
:10183000BF92CF92DF92EF92FF920F931F93CF93BD
:10184000DF93082F80917A0190917B01C5DCE82E0F
:10185000B82EB2948FE0B82280917C01BDDCF82EC6
:10186000C82EC2949FE0C92280917801B5DC182F60
:10187000D82ED2942FE0D222E0914C01F0E0EE0F6E
:10188000FF1FE65DFA4FC591D491FE01849160E39C
:101890006B0DC1D5FE01319684916E2D6F70605D28
:1018A000BAD5FE013296849160E36C0DB4D5FE0189
:1018B000339684916F2D6F70605DADD5FE013496C7
:1018C000849160E36D0DA7D5FE0135968491612F5B
:1018D0006F70605DA0D560E086E09DD581E0B1D5F8
:1018E00060E081E0B1D5033021F0023021F08CE1DD
:1018F00003C08BE101C08DE1DF91CF911F910F916A
:10190000FF90EF90DF90CF90BF9008951F93CF93FB
:10191000DF93C82F80910B01882371F080917A01A9
:1019200090917B018093450180917C0180934601D9
:10193000809178018093470180910A01811112C042
:101940008091450149DCD82F182F12951F7060E255
:1019500080E061D560E281E05ED569E582E05BD53B
:1019600069E527C0813091F48091460135DCD82F9C
:10197000182F12951F7060E280E04DD560E281E083
:101980004AD56DE482E047D56DE413C08230E1F4BE
:101990008091470121DCD82F182F12951F7060E22B
:1019A00080E039D560E281E036D564E482E033D569
:1019B00064E483E030D560E3610F84E02CD56D2FC3
:1019C0006F70605D85E027D560E086E024D580E01B
:1019D00038D5C11144D560E081E036D581E08093EF
:1019E0000B01C43041F4E0910A01F0E0EB5BFE4FE3
:1019F00080818F5F09C0C53049F4E0910A01F0E0B1
:101A0000EB5BFE4F8081815080832EC0C33041F458
:101A100080910A01811102C082E00CC081500AC08D
:101A2000C23059F480910A01823019F410920A01EF
:101A30001BC08F5F80930A0117C0C130A9F4F894CE
:101A40008091450190E090937B0180937A01809191
:101A5000460180937C0180914701809378017894BE
:101A600010920A018CE154C0809145018F3F19F416
:101A700083E68093450180914501843610F01092F1
:101A8000450180914601811103C08CE0809346019D
:101A9000809146018D3018F081E08093460180915D
:101AA0007C01823071F580917A0190917B01837085
:101AB0009927892B31F580917A0190917B0164E619
:101AC00070E00E946016892B51F480917A01909108
:101AD0007B0160E971E00E946016892B91F48DE131
:101AE00090914701911102C0809347019091470165
:101AF000891718F481E08093470110920B018EE161
:101B000007C0E0914601F0E0E45DFE4F8081E8CF40
:101B1000DF91CF911F910895CF93C82F8091090134
:101B2000882369F010920901E0914C01F0E0EE0F7A
:101B3000FF1FE25FFE4F61E0808191813AD4C430A3
:101B4000B1F480914C01823018F010924C0103C026
:101B50008F5F80934C01E0914C01F0E0EE0FFF1F8E
:101B6000E25FFE4F61E08081918123D410C0C530D7
:101B700041F480914C01811102C082E0EACF815092
:101B8000E8CFC13021F4C09309018CE101C080E2AB
:101B9000CF910895CF93DF93382F262FEA0163303A
:101BA00010F4245F2197FE01F695E795F695E795E9
:101BB000CE0160E971E00E946016E60FF71FEC0F9E
:101BC000FD1FCE0164E670E00E946016E61BF70B75
:101BD0004DE0249FC0011124039665E070E00E944F
:101BE0007416CB01830F911D8E0F9F1F67E070E06D
:101BF0000E946016DF91CF910895DF92EF92FF92DD
:101C00000F931F93CF93DF93C82F40917A01509188
:101C10007B0160917C0180917801BCDFE82FF0E0CE
:101C2000EE0FFF1FE95AFA4F8591949161E0C1D3FD
:101C300080917C01D1DAF82ED82ED2949FE0D9225F
:101C400080917801C9DAD82FE82EE2942FE0E222C1
:101C5000E0914C01F0E0EE0FFF1FE65DFA4F0591B9
:101C60001491F801849160E36D0DD5D3F80131969C
:101C700084916F2D6F70605DCED3F80132968491A0
:101C800060E36E0DC8D3F801339684916D2F6F70A9
:101C9000605DC1D360E086E0BED381E0D2D360E076
:101CA00081E0D2D3C33021F0C23021F08CE103C0F7
:101CB0008BE101C08DE1DF91CF911F910F91FF90DA
:101CC000EF90DF9008951F920F920FB60F9211249C
:101CD0002F933F934F935F936F937F938F939F9334
:101CE000AF93BF93EF93FF9380917401909175012F
:101CF000A0917601B091770180389047A105B10598
:101D000088F0809173018E3169F480917301815064
:101D100080937301109274011092750110927601F4
:101D2000109277018091740190917501A0917601D4
:101D3000B09177010196A11DB11D8093740190931C
:101D40007501A0937601B0937701809173018F5F45
:101D500080937301809173018C3309F071C01092EC
:101D6000730180917D018F5F80937D0180914D0192
:101D70008F5F80934D0180917D018C3308F45FC0AB
:101D800010927D01809172018F5F8093720180912A
:101D90007201883108F453C0109272018091780169
:101DA0008F5F8093780180917C018230F1F4809183
:101DB0007A0190917B0183709927892BB1F48091EE
:101DC0007A0190917B0164E670E07AD7892B49F41F
:101DD00080917A0190917B0160E971E071D7892B44
:101DE00021F481E08093440102C0109244012091CB
:101DF0007801E0917C0130E0F0E0E45DFE4F40814D
:101E00008091440190E0840F911D82179307BCF4E8
:101E100091E09093780180917C018F5F80937C01A9
:101E200080917C018D3058F090937C0180917A01F3
:101E300090917B01019690937B0180937A011BD056
:101E4000FF91EF91BF91AF919F918F917F916F9192
:101E50005F914F913F912F910F900FBE0F901F9068
:101E60001895109280018CE080937F0110927E0182
:101E7000109281010895CF93DF938091810188238F
:101E8000A1F180917E01811130C080917301811197
:101E90002CC090917D0180918001981326C0909173
:101EA000720180917F01981320C08091810181305F
:101EB00029F08230D1F4C6E0D5E002C0C4E0D0E021
:101EC00040917A0150917B0160917C018091780171
:101ED00061DE8D1750F0C81740F081E080937E01DD
:101EE00010924D01DF91CF91E4C5DF91CF9108951C
:101EF0008111F2D590914D0180913A01981708F027
:101F0000EBD580916401882311F08DE708958AE074
:101F10000895FF920F931F93CF93DF93F82E809134
:101F20007901811107C0E0917F01F0E0EC5EFE4F86
:101F3000808102C080917F014FD9C82F082F029560
:101F40000F708091800148D9D82F182F12951F70DB
:101F500061E480E060D26CE481E05DD260E3600F18
:101F600082E059D2CF7060E36C0F83E054D260E31B
:101F7000610F84E050D26D2F6F70605D85E04BD2B1
:101F800060E086E048D281E05CD260E081E05CD233
:101F900083E0F81629F082E0F81621F080E703C00C
:101FA0008FE601C081E7DF91CF911F910F91FF90E4
:101FB0000895FF920F931F93CF93DF93D82F8091B3
:101FC0003901882341F080917F0180934F018091F6
:101FD00080018093500180917901811107C0E091C7
:101FE0004F01F0E0EC5EFE4F808102C080914F0116
:101FF000F3D8682F6F7090E3F92EF60E82958F70EC
:10200000C0E3C80F80915001E7D8682F6F7000E3DC
:10201000060F82958F7010E3180F61E480E0FBD10A
:102020006CE481E0F8D180914E01882311F060E0EA
:1020300001C060E86C2B82E0EED180914E018823D4
:1020400011F060E001C060E86F2983E0E4D1809185
:102050004E01813011F060E001C060E8612B84E046
:10206000DAD180914E01813011F060E001C060E86A
:10207000602B85E0D0D160E086E0CDD180E0E1D179
:10208000D111EDD160E081E0DFD191E09093390191
:10209000D43041F4E0914E01F0E0E15BFE4F8081ED
:1020A0008F5F09C0D53049F4E0914E01F0E0E15B6B
:1020B000FE4F80818150808328C0D33049F48091C5
:1020C0004E01811103C090934E011FC081500AC080
:1020D000D23059F480914E01813019F410924E01A2
:1020E00014C08F5F80934E0110C0D13071F4F8940A
:1020F00080914F0180937F018091500180938001F6
:10210000789410924E0180E71DC080914F018F3F5F
:1021100019F487E180934F0180914F01883110F0CD
:1021200010924F01809150018F3F19F48BE38093FF
:102130005001809150018C3310F010925001109298
:10214000390182E7DF91CF911F910F91FF900895A0
:10215000CF93C82F80918101813059F030F08230C7
:1021600061F460E088E895E007C060E080E995E010
:1021700003C060E08CE895E01CD160E081E064D1B0
:10218000C33021F0C23021F085E703C084E701C0ED
:1021900086E7CF910895CF93C82F80918101813038
:1021A00069F030F0823081F460E08CE795E009C09E
:1021B00060E084E895E0FDD080E005C060E080E864
:1021C00095E0F7D081E09ED160E081E03DD1C43060
:1021D00041F4809181018230A0F4809181018F5F70
:1021E00009C0C53051F480918101882351F080915C
:1021F000810181508093810104C0C13011F485E7D1
:1022000001C087E7CF91089585B18F6085B984B10A
:10221000876084B981E08DBD8CE58CBD08958EBD4D
:102220000DB407FEFDCF8EB50895289A289887E54E
:10223000F6DF80E0F4DF282F287330E093E0359557
:1022400027959A95E1F7F901EC55FA4FE491E0935F
:102250005401F901EE0FFF1FEC56FA4F259134910E
:10226000309353012093520108952798269824987B
:1022700085B1806D85B91DB88EB18C608EB98CE04A
:1022800080936B0080ED80936C0080EC8CBB8DBBE9
:102290000E94D70880938201089523B18CB190E009
:1022A000809590958C709927922F9095907D892B91
:1022B00086FD09C087FD17C082FD17C083FD17C0CA
:1022C00084FD17C00BC084E090915701992331F031
:1022D00090915501992379F01092570180EC8CBBB5
:1022E00010924D01089585E0EFCF83E0EDCF82E0BD
:1022F000EBCF81E0E9CF8093560181E080935501D7
:1023000080914301882341F3C4D3E6CF1F920F92FB
:102310000FB60F9211242F933F934F935F936F93B8
:102320007F938F939F93AF93BF93EF93FF93B5DF0B
:10233000FF91EF91BF91AF919F918F917F916F919D
:102340005F914F913F912F910F900FBE0F901F9073
:1023500018951F920F920FB60F9211242F933F934F
:102360004F935F936F937F938F939F93AF93BF939D
:10237000EF93FF93CBDFFF91EF91BF91AF919F91CF
:102380008F917F916F915F914F913F912F910F901E
:102390000FBE0F901F901895F894809155018823D7
:1023A00029F0809156011092550101C080E0789487
:1023B0000895AC0180915E018111FCCF20E030E0F6
:1023C000922FFA01E20FF31F8491882361F02A31E2
:1023D000310541F0E491D901A856BE4FEC932F5F2F
:1023E0003F4FEECF9AE1E92FF0E0E856FE4F108222
:1023F000973048F081E0809383011092B20183E02E
:1024000080935D0104C0109283011092B20181E0BB
:1024100080935E0108958A3128F4E82FF0E0E856B1
:10242000FE4F6083089580E090E020E2FC01E856D2
:10243000FE4F208301968A319105C1F71092B101B8
:10244000089580935B01089590915E019111FCCFF6
:10245000609383011092B20180935E0108951092FF
:102460005C010895CF93C82F80913B01882319F018
:10247000DADF10923B0180913C010E94EC08982F1A
:102480009F70905D82958F70805D23E4209398010A
:1024900024E52093990122E520939A0120E22093DC
:1024A0009B0180939C0190939D0160E081E0CCDFD3
:1024B00080913C01C43011F48F5F03C0C53019F422
:1024C000815080933C0180913C018F3F11F4109228
:1024D0003C0180913C01803118F08FE080933C01F9
:1024E0008091E70090913C019F70807F892B8093C1
:1024F000E700C13021F4C0933B018CE501C08DE5BC
:10250000CF91089580935A0108956630A8F596ED0D
:10251000980F913568F4813608F08F7D8A52E82F44
:10252000F0E0EE0FFF1FE455FA4F8591949102C041
:1025300080E090E0562F517060FD02C040EF01C076
:102540004FE06695E62FF0E0EC57FE4FBF016C5E62
:102550007F4F282F2F7034E0969587953A95E1F7B5
:10256000552311F02295207F30813423232B2083A3
:102570003596E617F70769F7089591E0811101C0D4
:1025800090E09195E4E8F1E0919381E0E839F80773
:10259000D9F7089580E0F1DFE7EEF0E080818F6009
:1025A000808387EB8093E50087E08093E600A4EECC
:1025B000B0E080EC8C938C9188608C938081806EED
:1025C000808310925E0108951F920F920FB60F92B2
:1025D0001124FF920F931F932F933F934F935F9379
:1025E0006F937F938F939F93AF93BF93CF93DF931B
:1025F000EF93FF938091570181110CC08091590195
:102600008F5F80935901843028F081E080935701D7
:102610001092590180915F01833071F480915801CB
:102620008F5F80935801813148F081E080935F0192
:102630008FE08093580102C01092580180913D01B3
:10264000815080933D0190918301992381F0811104
:1026500010C080915D01811104C081E080935E0112
:1026600008C080915D01815080935D0102C010928D
:10267000B20180915E01813009F05CC0F0905C0194
:10268000C0E0D0E010E000E06C2F8091B2019E012C
:10269000280F311D87FD3A9537FD15C0111113C064
:1026A0008091B201FE01E80FF11D87FDFA95E85611
:1026B000FE4F8081082F001F0027001F8F7721F415
:1026C00011E01C0F01C080E2002321F034E03F152F
:1026D00008F480E21ADF2196C630D105A9F6ECEEA7
:1026E000F0E0DF01A856BF4F8C918193E11581E0A6
:1026F000F807B9F780915B01882321F081E080938E
:10270000F40002C01092F40090915A018091EC0004
:10271000992311F0846001C08B7F8093EC0011300D
:1027200011F48AEF03C08091B2018F5F8093B201F0
:1027300010925E0180913D01811103C083E080937E
:102740003D0180915C018A3019F410925C0105C052
:1027500080915C018F5F80935C01FF91EF91DF912D
:10276000CF91BF91AF919F918F917F916F915F9129
:102770004F913F912F911F910F91FF900F900FBE9E
:102780000F901F901895E82FF0E0EE0FFF1FE05E0E
:10279000F94F8591949161E00CCECF93DF938091B6
:1027A000620181110DC010926301E091B301F091BB
:1027B000B401859194918093610181E080936201DD
:1027C0008091610181116CC080916301882321F0A7
:1027D0008150809363015DC0C091B301D091B40179
:1027E00020916201CE01820F911D820F911DFC018B
:1027F000459154912F5F452B69F1FC0165917491CE
:1028000080E290E05DD26093630120936201FE015B
:10281000E20FF11DE20FF11D85919491209181004D
:102820008130910511F42E7F01C021602093810039
:10283000F8941092850010928400292F332727FDE9
:102840003A95209387008093860078948091620166
:102850008F5F0AC0FE01E20FF11DE20FF11D8591AD
:102860009491882321F081E08093620112C010923C
:10287000620110926401809181008E7F80938100BB
:102880008DEC93E10E94BE081092800010928100AE
:102890002D9AE091B301F091B4018591949101C01A
:1028A000815080936101DF91CF91089580E88093FA
:1028B0008000E1E8F0E080E18083808181608083B6
:1028C0001092890080914001809388008DEC93E103
:1028D0000C949B08CF93C82F80913F01882391F0DF
:1028E00010923F01809160014EDFE0916001F0E0C5
:1028F000EE0FFF1FE05DF94F859194919093B40125
:102900008093B301C430A9F48091600181110FC09C
:1029100081E0E82FF0E0EE0FFF1FE05EF94F259118
:10292000349191E0980F232B11F0892FF2CF815031
:102930000FC0C53019F5809160018F5FE82FF0E07E
:10294000EE0FFF1FE05EF94F25913491232B19F014
:102950008093600102C0109260018091600113DFDA
:10296000E0916001F0E0EE0FFF1FE05DF94F85910F
:1029700094919093B4018093B3010DC0C13021F4C0
:10298000C0933F018BE208C0C33029F481E08093FB
:102990003F0188E201C08AE2CF910895CF93C82F0A
:1029A00080913E01882369F010923E0110926201ED
:1029B0007DDF61E088E196E0FCDC81E080936401EA
:1029C0000DC080916401811109C08DEC93E10E94DA
:1029D000BE08109280001092810053C0C43041F4B0
:1029E00080914001803510F080E50BC08B5F09C0FD
:1029F000C53081F4809140018B3010F486E001C035
:102A0000855080934001109289008091400180930D
:102A100088003CC0C13019F580916401882399F089
:102A200010926401809181008E7F809381008DECF3
:102A300093E10E94BE0810928000109281002D9AAE
:102A4000C0933E0121C010926301C09362012EDF4A
:102A500061E088E196E0ADDCC093640117C0C3304B
:102A6000A9F410926401809181008E7F809381008F
:102A70008DEC93E10E94BE081092800010928100BC
:102A80002D9A81E080933E018AE201C08BE2CF91D2
:102A90000895CF93CAE02D9881E090E00E94E70668
:102AA0002D9A81E090E00E94E706C150A1F7CF91F6
:102AB0000895CF93E6E3F6E0859194919093B40165
:102AC0008093B30110926301C1E0C0936201EEDE16
:102AD000C0936401CF910895CF93DF931092640166
:102AE000C1E8D0E088818E7F88838DEC93E10E94DD
:102AF000BE081092800018822D9ADF91CF91089520
:102B00004BDC8130E9F70895BF92CF92DF92EF92CC
:102B1000FF920F931F93CF93DF9300E810E080E8BC
:102B2000F8018083C1E8D0E081E1888388818160F9
:102B300088831092890080E58093880087E8C82EFA
:102B4000D12CBB24B394F601B08296E8E92EF12C87
:102B50008FE3F701808382E390E00E94E706F601AD
:102B6000B0828EEDF70180838CE291E00E94E7064F
:102B7000F80110821882DF91CF911F910F91FF9081
:102B8000EF90DF90CF90BF9008951092700060E0BA
:102B90008FE29BE00EDCB4DF60E08AE29BE009DCC0
:102BA000FBDB8330E9F760E087E29BE002DCF4DBEB
:102BB0008430E9F760E081E29BE0FBDBEDDB823013
:102BC000E9F760E08CE19BE0F4DBE6DB8530E9F7D8
:102BD00060E086E19BE0EDDB93DF80E8809380009E
:102BE00081E18093810080918100816080938100E8
:102BF0001092890080E580938800C8EC10928700CD
:102C0000C09386008EE190E00E94E706C550CF3564
:102C1000A9F7109280001092810060E08DE09BE0A7
:102C2000C8DB1C9BFECF6CDF8091E400877F809324
:102C3000E400C0E0D0E001E010E0802F0C2E01C0E5
:102C4000880F0A94EAF78093EC0088EE93E00E94E4
:102C5000E7062196C730D10581F7ECEEF0E08FEF63
:102C60008193E11591E0F907D9F71C9BFECF84E62B
:102C700090E00E94E7061C99FECF8091E4008860F6
:102C80008093E40080E00E9460090E942A09845C2D
:102C900091408738910560F060E08BEF9AE089DB26
:102CA00033DF2EDF0E94660960E081E0CDDB28DFA4
:102CB00081E00E94870624DF88E180936000FFCFD7
:102CC000AA1BBB1B51E107C0AA1FBB1FA617B70752
:102CD00010F0A61BB70B881F991F5A95A9F780956E
:102CE0009095BC01CD01089597FB072E16F4009432
:102CF00006D077FD08D0E4DF07FC05D03EF49095C0
:102D000081959F4F0895709561957F4F0895F89430
:022D1000FFCFF3
:102D12000101010101010401030102010101500548
:102D2200490542050C0102030405060708090A0BBE
:102D32000C0102030405060708090A0B001F1C1FE9
:102D42001E1F1E1F1F1E1F1E1F0103010F03010155
:022D520050002F
:00000001FF
